:1080000000000120497C0200C9500200C950020052
:10801000C9500200C9500200C9500200000000000F
:10802000000000000000000000000000C950020035
:10803000C950020000000000C950020001C3010045
:10804000C9500200C9500200C9500200C9500200C4
:10805000C9500200C9500200C9500200C9500200B4
:10806000C9500200C9500200C9500200C9500200A4
:10807000C9500200C9500200C9500200C950020094
:10808000C9500200C9500200C9500200C950020084
:10809000C9500200C9500200C9500200C950020074
:1080A000C9500200C9500200C9500200C950020064
:1080B000C9500200C9500200C9500200C950020054
:1080C000C9500200C9500200C9500200C950020044
:1080D000C9500200C9500200C9500200C950020034
:1080E000C9500200C9500200C9500200C950020024
:1080F000C9500200F1DD0100C9500200C950020060
:10810000C95002003DDC0100C9500200C950020004
:10811000C9500200F1D30100C9500200C950020049
:10812000C9500200C9500200C9500200C9500200E3
:10813000C9500200C9500200C95002000DF90100E7
:10814000D9EB0100C9500200C9500200C950020019
:10815000C9500200C9500200C9500200C9500200B3
:10816000C95002005D630200C9500200C9500200FC
:10817000C9500200C9500200C9500200C950020093
:10818000C9500200C9500200C9500200C950020083
:10819000C9500200C9500200C9500200C950020073
:1081A0006DEB0100C9500200C9500200C950020025
:0C81B000C9500200C9500200C950020072
:10840000FFFFFFFFFFFFFFFFFFFFFFFF7EF9FFFF03
:1084200010B5054C237833B9044B13B10448AFF3AE
:1084300000800123237010BD0012FF1F0000000008
:1084400050B2020008B5034B1BB103490348AFF318
:10845000008008BD000000000412FF1F50B202009F
:1084600010B516F0E5FB064B00221A70054B1B6891
:108470009847054B9B69BDE810405B69184700BFF2
:10848000340BFF1FB001FF1F1C9D02002DE9F047B8
:108490001546421E0C46072A00F25482DFE812F00D
:1084A00008000E000E0052006E00BE00FD00B80174
:1084B000FFF7D6FF47F6A8532B603FE0A54CA64A2E
:1084C000A64B02280ABFA14691461446DF68A9F1CF
:1084D0000409043C4FF0FF364FF000084FF0010A4A
:1084E0003B6859F8040F1B6998473B6854F8040F20
:1084F000DB6898473B6820685B6998473B68D9F818
:1085000000005B6A984718B90AFA08F326EA0306DE
:108510003B6820689B6998473B68D9F800005B6A14
:10852000984718B10AFA08F326EA030608F1010889
:10853000B8F1110FD4D1C6F310062E6000242046E6
:10854000BDE8F0872C60032C00F2AB80DFE804F07C
:10855000020B0F13814BDB691B681B889AB2322315
:1085600053431B14A8E77D4BDB695B68F5E77B4B46
:10857000DB699B68F1E77A4B1B699DE7012C2C6056
:108580001BD0022C30D0002C40F08B80734BDD6868
:10859000D5E90030DB6868309847D5E90030DB6802
:1085A00088309847D5E900305B6968309847D5E94D
:1085B00000305B6988309847C1E7684BDC68D4E9D4
:1085C0000030DB68C8309847D4E90030DB68A83059
:1085D0009847D4E900305B69C8309847D4E9003047
:1085E0005B69A8309847A9E75C4BDC68D4E90030A8
:1085F000DB6800F5A4709847D4E90030DB6800F52B
:10860000B4709847D4E900305B6900F5A4709847CE
:10861000D4E900305B6900F5B470E3E7012C2C600D
:108620000ED0022C21D0002C3BD14C4BDD68D5E97B
:108630000030DB6888309847D5E900301B69B4E723
:10864000464BDC68D4E90030DB68C8309847D4E991
:108650000030DB68A8309847D4E900305B69C83047
:108660009847D4E900309B69BBE73C4BDC68D4E910
:108670000030DB6800F5A4709847D4E90030DB686F
:1086800000F5B4709847D4E900305B6900F5A47038
:108690009847D4E900309B69BDE72C601CB1012CE0
:1086A00060D002244BE72D4BDD68D5E90030DB6854
:1086B00000F5D9609847D5E900305B6900F5D960CD
:1086C0009847D5E90030DB6800F5DD609847D5E9CB
:1086D00000305B6900F5DD609847D5E90030DB6864
:1086E00000F5E1609847D5E900305B6900F5E1608D
:1086F0009847D5E90030DB6800F5E5609847D5E993
:1087000000305B6900F5E5609847D5E90030DB682B
:1087100000F5E9609847D5E900305B6900F5E9604C
:108720009847D5E90030DB6800F5ED609847D5E95A
:1087300000305B6900F5ED609847D5E90030DB68F3
:1087400000F5F1609847D5E900305B6900F5F1600C
:1087500031E700BF805FFF1F445EFF1F1C9D0200CA
:10876000340BFF1F784BDC68D4E90030DB6800F580
:10877000D9609847D4E900309B6900F5D9609847E3
:10878000D4E90030DB6800F5DD609847D4E90030BB
:108790009B6900F5DD609847D4E90030DB6800F59F
:1087A000E1609847D4E900309B6900F5E1609847A3
:1087B000D4E90030DB6800F5E5609847D4E9003083
:1087C0009B6900F5E5609847D4E90030DB6800F567
:1087D000E9609847D4E900309B6900F5E960984763
:1087E000D4E90030DB6800F5ED609847D4E900304B
:1087F0009B6900F5ED609847D4E90030DB6800F52F
:10880000F1609847D4E900309B6900F5F160E9E632
:108810002C60002C4CD0012C7FF443AF4A4BDC6819
:10882000D4E90030DB6800F5B1609847D4E9003046
:108830009B6900F5B1609847D4E90030DB6800F52A
:10884000B5609847D4E900309B6900F5B56098475A
:10885000D4E90030DB6800F5B9609847D4E900300E
:108860009B6900F5B9609847D4E90030DB6800F5F2
:10887000BD609847D4E900309B6900F5BD6098471A
:10888000D4E90030DB6800F5C1609847D4E90030D6
:108890009B6900F5C1609847D4E90030DB6800F5BA
:1088A000C5609847D4E900309B6900F5C56099E63A
:1088B000254BDD68D5E90030DB6800F5B1609847ED
:1088C000D5E900305B6900F5B1609847D5E9003023
:1088D000DB6800F5B5609847D5E900305B6900F5C5
:1088E000B5609847D5E90030DB6800F5B960984776
:1088F000D5E900305B6900F5B9609847D5E90030EB
:10890000DB6800F5BD609847D5E900305B6900F58C
:10891000BD609847D5E90030DB6800F5C160984735
:10892000D5E900305B6900F5C1609847D5E90030B2
:10893000DB6800F5C5609847D5E900305B6900F554
:10894000C56038E60424FAE51C9D020038B5064DE2
:108950002B68C31AB3F5FA7F044604D3034B9B6913
:108960009B6998472C6038BD1C12FF1F1C9D02009C
:108970003A4B3B4ADB685B6803F59471116003F185
:108980004801516003F18801916003F1C801D16091
:1089900003F58471116103F5B471516103F5D4716C
:1089A000916103F5F471D16103F50A71116203F568
:1089B0001A71516203F52A71916203F53A71D1621D
:1089C00003F54A71116303F55A71516303F56A7136
:1089D000916303F57A71D16303F585611164214ACE
:1089E00003F10801116003F12801516003F16801EE
:1089F000916003F1A801D16003F1E801116103F571
:108A0000A471516103F5C471916103F5E471D16101
:108A100003F50271116203F51271516203F52271BF
:108A2000916203F53271D16203F54271116303F56E
:108A30005271516303F56271916303F5727103F52D
:108A400081631364084BD16301221A70074B084AF3
:108A50005A65084ADA65084A9A6570471C9D020003
:108A6000445EFF1F805FFF1F340BFF1F885EFF1FE8
:108A70008D840000618400004D8900007047022051
:108A800070470220704770477047022070470220ED
:108A900070470220704701207047704702207047DE
:108AA00070478369124A134910B5C3E98122124BFA
:108AB000C365124BC361C0E90A1311490362C0E9DF
:108AC0000C13104B8364104BC364104B8363C0E9D9
:108AD00010330F4B436600230E4CC3660E4B0F4AF8
:108AE0008265C0E91414C0E91C33C463026610BD7A
:108AF000978A00007F8A00007D8A0000838A000038
:108B00008B8A0000878A0000898A00008F8A000013
:108B10009B8A0000938A00009D8A0000A18A0000C1
:108B2000704700BF0A480B4B0022012110B44FF0E0
:108B3000FF3480F88C201A8083F81012C0E921419C
:108B4000C0F89030C0F8802010BC7830FFF7A9BF83
:108B5000885EFF1F2C12FF1F084A094800234FF0B0
:108B6000FF314FF0010C138082F81032C0E9031C72
:108B7000826103758360FFF794BF00BF4C14FF1F31
:108B8000885EFF1F00230649184611F8012B02F0EA
:108B900003029A4002330E2B40EA0200F5D17047DF
:108BA0006C16FF1F0549431E063011F8012B02F019
:108BB000030203F8012F8342F7D170476C16FF1FA1
:108BC000074B1A7802705A7842709A788270DA7875
:108BD000C2701A7902715A7942719B798371704718
:108BE0006C16FF1FF8B5094B094D0A4FDE680024CB
:108BF00015F8011B7A6C33681059DB6901F0030129
:108C0000043498471C2CF3D1F8BD00BF1C9D020012
:108C10006C16FF1F0800FF1F064A0723013B00F0E8
:108C2000030113F0FF0302F8011B4FEA9000F5D196
:108C3000D8E700BF6C16FF1F014B586AECE700BF76
:108C40000800FF1F0549431E063013F8012F02F0EC
:108C50000302834201F8012BF7D1C3E76C16FF1F13
:108C6000074B02781A7042785A7082789A70C278EC
:108C7000DA7002791A7142795A7182799A71B1E780
:108C80006C16FF1F024B0022C3F88020704700BF04
:108C9000885EFF1F10B50348144617F004FC2060DF
:108CA00010BD00BFA016FF1F10B50F4C0146204697
:108CB00017F065FC002016F075FD6F21204617F0B7
:108CC000F2FBC0F30061002016F010FE012016F048
:108CD00069FD7F21204617F0E6FBBDE81040C0F398
:108CE0000061012016F002BEA016FF1F014817F018
:108CF000CCBB00BFA016FF1F012808B503D816F093
:108D000039FD002008BD0820FCE7012808B503D87C
:108D100016F00AFD002008BD0820FCE70021F4E75A
:108D20004942F2E7F1E701292DE9F04105461E46E7
:108D3000084600F21F83CE2A0CD8A12A0CD81D2A7F
:108D40006AD9332A00F03A818C2A00F03F81322A16
:108D500000F02C810425A5E0A23A2C2AFAD801A320
:108D600053F822F0619000008B900000B590000055
:108D7000DF900000619100009F910000B991000018
:108D8000E59100000F92000039920000639200000C
:108D90007B920000A5920000558D0000558D0000CB
:108DA000558D0000558D0000DD92000007930000F6
:108DB00021930000558D0000558D00003193000077
:108DC000558D0000558D0000558D0000558D00001B
:108DD000558D0000558D0000558D0000558D00000B
:108DE000558D0000558D0000558D0000558D0000FB
:108DF000558D0000558D0000558D0000558D0000EB
:108E0000558D0000558D0000558D0000558D0000DA
:108E1000558D00005B9300001D2A9BD801A353F8D9
:108E200022F000BF9D8E0000B58E0000C58E0000B0
:108E3000D58E0000E18E0000F78E0000078F000045
:108E4000358F0000698F0000558D0000558D0000A2
:108E5000558D0000558D0000558D0000558D00008A
:108E6000558D0000558D0000558D0000558D00007A
:108E7000558D0000558D0000558D0000558D00006A
:108E8000558D0000558D0000558D0000558D00005A
:108E9000558D0000798F0000A38F00002DB916F0CA
:108EA000FBFD30602846BDE8F081316816F062FCB9
:108EB0000025F7E715B916F0DFFDF2E7316816F087
:108EC0007BFDF5E715B916F007FEEAE7316816F005
:108ED0002BFCEDE7002D7FF43DAF16F0EDFDE0E754
:108EE00015B916F019FEDCE731680029B8BF494210
:108EF00016F07EFDDCE715B916F0FEFDD1E731680E
:108F000016F028FFD4E72021814041F01004E4B29C
:108F1000AF48214625B917F0C6FAC0F30420C0E7D0
:108F200017F0C1FA33681B0203F4F85320F4F85227
:108F30001A4314E02021814041F01004E4B2A44817
:108F4000214625B917F0AFFA00F01F00A9E717F086
:108F5000AAFA326820F01F0002F01F0202439C4868
:108F6000214617F092FAA3E7002D7FF4F3AE16F036
:108F70005FFCC0F3001094E70C0144F06C04E4B211
:108F80009348214625B917F08EFAC0F3804088E750
:108F900017F089FA33689B0403F4802320F48022BD
:108FA000C6E7002D7FF4D6AE284696E715B916F031
:108FB000D1FD76E7197816F037FD79E715B916F087
:108FC000D7FD6EE7196816F03FFD71E755B9090145
:108FD00041F06C017E4801F0FC0117F064FAC0F327
:108FE00003605EE71B68102B32D00ADC013B072BC5
:108FF0000ED8072B0CD8DFE803F014250B270B0B3A
:109000000B29802B2AD007DC202B23D0402B23D008
:109010004FF0FF3333604BE7B3F5807FF8D1002387
:1090200000E00823040144F06C04E4B233606848B3
:10903000214617F038FA33681B0603F0706320F0FE
:10904000706275E70723EDE70623EBE70523E9E701
:109050000423E7E70323E5E70223E3E70123E1E74E
:109060000C0144F06C04E4B25948214625B917F0CC
:109070001AFAC0F3C13014E717F015FA3368DB03AE
:1090800003F4C03320F4C03252E70C0144F06C0406
:10909000E4B24F48214625B917F005FAC0F38030F5
:1090A000FFE617F000FA33689B0303F4804320F4D3
:1090B00080423DE70C0144F06C04E4B24448214690
:1090C00025B917F0F0F9C0F30030EAE617F0EBF934
:1090D00033681B0303F4805320F4805228E70C010B
:1090E00044F06C04E4B22146394817F0DCF921461B
:1090F000804600F48047364885B927B117F0D3F988
:10910000C0F3C310CDE617F0CEF918F4006FC0F32A
:10911000021318BF43F008033360C3E647B117F0EA
:10912000C2F93368DB0103F4F06320F4F062FFE678
:1091300017F0B9F933681B0103F0700320F07002D7
:109140001A432348214617F0A0F92148214617F079
:10915000AAF933681B0203F4006320F40062E7E617
:109160000C0144F06C04E4B22146194817F09BF955
:10917000214600F48047164835B9002FBED017F0BD
:1091800092F9C0F302108CE6002FC8D017F08BF9CB
:1091900033681B0103F0700320F07002C8E60C0175
:1091A00044F06C04E4B20A482146002D5DD117F06A
:1091B0007AF900F00F0074E60C0144F06D04E4B29B
:1091C0000348214635B917F06EF9C0F3C03068E6A0
:1091D000A016FF1F17F067F93368DB039BB220F47A
:1091E0000042A5E60C0144F06D04E4B26248214659
:1091F00025B917F058F9C0F3413052E617F053F98A
:1092000033685B0303F4C04320F4C04290E60C01D2
:1092100044F06D04E4B25848214625B917F043F9EB
:10922000C0F303203DE617F03EF933681B0203F458
:10923000706320F470627BE60C0144F06D04E4B2CC
:109240004D48214625B917F02EF9C0F3411028E604
:1092500017F029F933685B0103F0600320F0600226
:1092600066E60C0144F06D049CE717F01CF93268C7
:1092700020F00F0002F00F0270E60C0144F06D04C4
:10928000E4B23D48214625B917F00DF9C0F300605E
:1092900007E617F008F933681B0603F0807320F027
:1092A000807245E60C0144F06D04E4B23248214678
:1092B0005DB917F0F8F8031413F04003C0F306404B
:1092C00018BF6FF07F031843EBE517F0ECF8336835
:1092D0001B0403F4FE0320F4FE0229E60C0144F013
:1092E0006C04E4B22448214625B917F0DCF8C0F339
:1092F0004040D6E517F0D7F833685B0403F4003339
:1093000020F4003214E6002D7FF424AD090141F071
:109310006F011948C9B217F0C6F8C0F30440C0E5A0
:1093200015B916F009FCBCE5316816F06FFBBFE516
:109330000C0144F06C04E4B20F48214625B917F043
:10934000B2F8C0F34030ACE517F0ADF833685B031A
:1093500003F4005320F40052EAE5002D7FF4FAAC48
:10936000090141F06F010448C9B217F09CF8C0F33D
:10937000090096E5082595E5A016FF1F07B501929F
:1093800001AB02460120FFF7CEFC03B05DF804FB01
:10939000134602460020C6E4014817F0D8B800BFC3
:1093A000A016FF1F38B5002016F086FB08B100207C
:1093B00038BD012016F080FB04460028F7D10C4D83
:1093C000284617F0B1F80B4816F004FCD5F88C22AB
:1093D000D5F884122346204616F052FA0120D5F81B
:1093E0009022D5F88812234616F04AFA0120DFE7CA
:1093F000A016FF1FA0860100022804BF0C4B93F8A3
:10940000F00038B90B4BDB681B685B690A4AD2F87D
:1094100094021847012809D1054B93F8F030012B2D
:1094200004D1044BDB681B689B69EFE7704700BF02
:10943000885EFF1F1C9D0200A016FF1F70B5002054
:10944000FFF7DAFF0C4B0D4CDD68D4F894022B6863
:109450009B6898472B68D4F8A4029B6898472B68B0
:10946000D4F8A8029B68984716F02CFC044BBDE882
:1094700070405B68184700BF1C9D0200A016FF1FCC
:10948000E00AFF1F0346052B10B5084614460CD012
:1094900007D8023B022B06D816F06AFB206000209A
:1094A00010BD182BF8D00420FAE716F07DFBF5E785
:1094B00038B50D46044620B916F0FEFA286020465D
:1094C00038BD0820FCE70346022B10B508461446B9
:1094D00011D0032B17D0012B18D10D4B0D4ADB688F
:1094E000D2F8A4021B685B6A9847003818BF0120B5
:1094F0002060002010BD064B064ADB68D2F8A802A7
:109500001B685B6AF0E716F093F9F1E70420F1E7D6
:109510001C9D0200A016FF1F012838B504460D4609
:1095200009D816F0A9FA2968014429602046BDE847
:109530003840FFF7E1BB082038BD052803D80128D3
:1095400003D8042070471828FBD100201060704712
:10955000034BD3F8B0320846DB681146184700BF0A
:10956000A016FF1F2DE9F0415A4C5B4D5B4FD4F81C
:1095700090205B4B0121284616F0B9FFFE68736806
:1095800003F16802C5F8942203F1E802C5F8A822A5
:1095900003F58472C5F8A42203F5A472C5F88C22E1
:1095A00003F5B47203F59470C5F8882203F5C4720C
:1095B00003F50273C5F8AC323368C5F89022DB6856
:1095C000C5F8840298473368D5F88C02DB68984761
:1095D0003368D5F88802DB6898473368D5F890027D
:1095E000DB6898473368D5F89402DB68984733689E
:1095F000D5F8AC02DB6898473B693A4803F114029E
:10960000C5F8B022D5F8AC229A6116F0E3FA00232F
:10961000D5F88C22D5F88412184616F031F9D5F811
:109620008812D5F890220023012016F029F9D4F8E9
:1096300090302D4AC3F804222C4AC3F80822012294
:109640001A802B4BC4F89C302A4BC4F898302A4B14
:10965000C4F89430294BC4F8A030294BC4F8B43076
:10966000284BC4F8B030284BC4F8A430274BC4F8BA
:10967000A830274BC4F8C430264BC4F8C030264B62
:10968000C4F8D030254BC4F8CC30254BC4F8C830D2
:10969000244BC4F8DC30244BC4F8D83032224FF4C9
:1096A0008F73C4E92132214BC4F8D430204BC4F865
:1096B000E83002201F4B84F88C00C4F8EC301E4CBC
:1096C000FFF79AFE236898470021A3680846BDE883
:1096D000F0411847885EFF1FA016FF1F1C9D020067
:1096E000D87E0200A0860100A59300009993000097
:1096F0000B8D0000258D0000218D00001D8D0000C8
:10970000919300007D930000F98C000019950000F2
:10971000ED8C0000958C0000A98C0000C79400001F
:10972000B1940000F9930000858C00003D94000086
:109730003B95000085940000E00AFF1F014B104696
:10974000DB6B18470800FF1F034B10B51B6C14465A
:109750009847206010BD00BF0800FF1F062873B5A2
:1097600004460E467BD8404D68462B6B013C98471B
:109770002B46042C04D8DFE804F00866696C6F00FF
:109780009DF80030336000200BE09DF80120E9785F
:10979000914208D19DF80200297B884203D1002024
:1097A000306002B070BD1979914206D19DF8020077
:1097B000597B884201D10123E4E75979914206D1CE
:1097C0009DF80200997B884201D10223DAE799795A
:1097D000914206D19DF80200D97B884201D1032332
:1097E000D0E7D979914206D19DF80200197C8842D0
:1097F00001D10423C6E7597A914206D19DF80200AF
:10980000997C884201D10523BCE7997A914206D11F
:109810009DF80200D97C884201D10623B2E7197A6B
:10982000914206D19DF80200597C884201D107235C
:10983000A8E7D97A914214D19DF802201B7D9A4263
:109840000FD108239EE79DF803309BE79DF8043075
:1098500098E79DF8053095E79DF8063092E70420DB
:109860009FE710209DE700BF0800FF1F07B5034BCF
:1098700068461B6B984703B05DF804FB0800FF1FA8
:1098800070B50020FFF7F2FF1E4B1F4CDD68206B08
:109890002B689B6898472B68E06A9B6898472B6801
:1098A000E0689B6898472B68A0689B6898472B687E
:1098B00060689B6898472B6820689B6898472B686E
:1098C000A0699B6898472B68E0699B6898472B685C
:1098D000A06A9B6898472B6860699B6898472B68CB
:1098E000206A9B6898472B68606A9B6898472B683A
:1098F00020699B68984716F0E5F9044BBDE8704075
:109900005B6818471C9D02006019FF1FE00AFF1FDB
:10991000002015F047BF10B5044618B915F02AFF0E
:10992000204610BD0820FCE710B5044618B915F014
:10993000FBFE204610BD0820FCE70021F4E7494269
:10994000F2E7F1E7062873B505460C465DD8022913
:1099500003D901285BD10F2959DC2E4E6846336BA1
:1099600098473346052D06D8DFE805F0030B43463C
:10997000494C8DF800406846DB6A9847002002B0E9
:1099800070BD082CF7D8DFE804F0050C11161B2079
:10999000252A2F00F2788DF80120327B8DF80220E5
:1099A000E9E732798DF80120727BF7E772798DF85B
:1099B0000120B27BF2E7B2798DF80120F27BEDE76E
:1099C000F2798DF80120327CE8E7727A8DF8012077
:1099D000B27CE3E7B27A8DF80120F27CDEE7327ADE
:1099E0008DF80120727CD9E7F27A8DF80120327D62
:1099F000D4E78DF80340BEE78DF80440BBE78DF84F
:109A00000540B8E78DF80640B5E70420B7E7102019
:109A1000B5E700BF0800FF1F38B5044615460846E5
:109A20001CB1012C06D0042038BD15F001FF2860C0
:109A30000020F9E7094B0A4DDC680A4B606800F525
:109A40009470D8616B6C58612368DB6898476A6CC6
:109A5000236850699B699847EAE700BF1C9D020094
:109A60000800FF1F6019FF1F38B50D46044648B9AE
:109A700016F002F8296801442960204615F07AFEA4
:109A8000204638BD0820FCE738B51546002958D1D6
:109A900013280ED8421E122A11D8DFE802F0161A37
:109AA0001E22262A2A2A2A2A2A323D444444444491
:109AB000440032283DD033283FD0042004E0002069
:109AC00015F0EAFF2860002038BD002015F0D4FF13
:109AD000F8E7002016F000F8F4E7002015F0ECFF9E
:109AE000F0E7002016F018F8ECE7002016F004F874
:109AF000E8E70828E1D1002015F09AFEC0F3001035
:109B0000E0E7114B114ADB68D06A1B685B6A984733
:109B1000003818BF0120D5E70B4B0C4ADB68106BEF
:109B20001B685B6AF3E70E382946C0B2FFF716FEE2
:109B3000C9E7084616F00EF8C4E7084616F018F80C
:109B4000C0E70820C0E700BF1C9D02006019FF1F8E
:109B50001FB50C46019200296AD113280DD813288D
:109B600011D8DFE800F0121A1F10242C31313131E6
:109B70003131384550505050505033284AD08C28FD
:109B80004DD0322841D0042404E00199002015F082
:109B9000F1FD0024204604B010BD0199002015F00D
:109BA0000BFFF6E70199002015F0BEFDF1E70199E2
:109BB0000029B8BF4942002015F01AFFE9E70199D2
:109BC000002016F0C7F8E4E706380199C0B2FFF7A5
:109BD000B9FE0446DEE7174B174ADB68019C1B6899
:109BE000D06A14B15B699847D3E79B699847D1E77E
:109BF000019942F210739942C5D8104B89B29B6803
:109C000000209847C5E70E38DFE7D1B2204615F0AF
:109C10000BFFBFE71146204615F016FFBAE701A972
:109C20000120FFF79BFD064B04469B6B02A8DDE776
:109C30000824AFE71C9D02006019FF1FE00AFF1F08
:109C40000800FF1F6E4B2DE9F041DE686D4C706817
:109C50006D4F00F5E473236300F5D473E36200F500
:109C60002273E36000F52A73A36000F51A73636042
:109C700000F50273236000F55A73A36100F5527377
:109C8000E36100F16803A36200F5A473636100F56A
:109C90006A73236200F572736362336800F594702F
:109CA000DB682061984733686069DB6898473368F0
:109CB000206BDB6898473368E06ADB689847336855
:109CC000206A1B6998473368606A1B6998477B6CF8
:109CD000E2681A60A2685A6062689A602268DA6074
:109CE000A2691A61E2695A61A26A9A6100257A6CD6
:109CF00033685059DB6898477A6C336850599B69D0
:109D0000043598471C2DF2D1404DD5F890304FF0D6
:109D1000000883F800804FF4003015F05BFFD4E9B1
:109D200004124346404615F0ABFD44F62061404620
:109D300015F05EFE46F2A811404616F00BF8344BC3
:109D4000C5F89C30334BC5F89830334BC5F8943088
:109D5000324BC5F8A030324BC5F8B430314BC5F8A2
:109D6000B030314BC5F8A430304BC5F8A830304B7B
:109D7000C5F8C4302F4BC5F8C0302F4BC5F8CC30D8
:109D80002E4BC5F8D0302E4BC5F8DC30012385F8BA
:109D90008C3002202B4BC5F8D430FFF767FD4046CE
:109DA00015F08AFE10B1284B9B78ABB1BB6A98477F
:109DB0004FF4003015F00EFF0023D4E904121846CA
:109DC00015F05EFD44F62061002015F011FE46F20C
:109DD000A811002015F0BEFF3368206BDB689847A0
:109DE000206B1A4C0423437533681B68984723681B
:109DF00098470021A3680846BDE8F041184700BF16
:109E00001C9D02006019FF1F0800FF1F885EFF1FD6
:109E100029990000439900003F9900003B990000F8
:109E2000899A0000519B000017990000699A000070
:109E30003D97000049970000199A00001199000011
:109E40006D98000081980000340BFF1FE00AFF1F8F
:109E50001B4B70B5DD681B4C2B68A0685B6998478D
:109E60002B6820689B6898472B6860689B689847B8
:109E70002B68206A9B6898472B68606A9B689847A4
:109E80002B68E0689B6898472B6820699B68984717
:109E90002B6860699B6898472B68A0699B68984706
:109EA0002B68E0699B6898472B68A0689B68984777
:109EB00015F008FF044BBDE870405B68184700BF11
:109EC0001C9D0200A019FF1FE00AFF1F10B51446D9
:109ED000062805D8DFE800F0062523343F444E006D
:109EE000042010BD146844F620639C424ED8284BD1
:109EF000284ADB68106A1B6842F210718C42DB69E9
:109F000094BF00210121984742F21173B4FBF3F191
:109F100003FB1141204B89B29B6800209847002029
:109F2000DFE71B4B2468DA68D2E9003000F5F470F3
:109F30001CB1DB6900219847F1E79B689847EEE781
:109F4000134B1168DB68134A1B681069DB69003921
:109F500018BF0121EFE7084615F06AFC2060DEE734
:109F60000B4B0C4ADB6858681B6800F59470DB6883
:109F70001061E3E7064B074ADB6858681B6800F688
:109F800008015B69D16000F55270D7E71020A8E79F
:109F90001C9D0200A019FF1FE00AFF1F10B5034817
:109FA000144616F070FB206010BD00BFC45FFF1F99
:109FB00010B5094C0146204616F007FC002015F0AC
:109FC000F1FB6F21204616F05EFBBDE81040C0F3A8
:109FD0000061002015F08ABCC45FFF1F014816F025
:109FE00044BB00BFC45FFF1F10B5044618B915F08D
:109FF000C1FB204610BD0820FCE710B5044618B987
:10A0000015F092FB204610BD0820FCE70021F4E784
:10A010004942F2E7F1E770B504461D46002940F0D9
:10A020001F85332A00F28280332A00F21F85DFE881
:10A0300012F0850090009B00A600C700D500E0004C
:10A04000F8000F011D051D051D051D051D051D053C
:10A050001D051D051D051D051D051D0518011D05F9
:10A06000220147011D0555016D0185019F011D0557
:10A070001D051D051D051D051D051D051D051D05D0
:10A080001D051D051D051D051D051D051D051D05C0
:10A090001D051D051D05B801C3018C3A422A00F2B9
:10A0A000E284DFE812F09401E004E004E004E0045C
:10A0B000E004E004E004E004E004E004E004E00480
:10A0C000E004E004E004E004E004E004E004E00470
:10A0D000E004E501FD0115022D028802CD02E40233
:10A0E000FB0213032B0343035D037503E004E00449
:10A0F000E004E0049403AC03B703C303E004E80303
:10A10000000418043D046404E004E0047A049904A3
:10A11000E004E004E004E004E004E004E004E0041F
:10A12000E004E004E004B404E004D30402F17403A6
:10A13000DBB2422BB1D90424204670BD18B915F00A
:10A14000ABFC2860F8E72968002015F013FB002419
:10A15000F2E718B915F090FC2860EDE729680020B7
:10A1600015F02AFC0024E7E718B915F0B5FC2860C3
:10A17000E2E72968002015F0D7FA0024DCE7002880
:10A1800040F0778415F0E6FC18B915F095FC2860CE
:10A19000D2E7204615F0ECFC12210646AD4816F039
:10A1A00072FAC0F313027A20D317A6FB00011DF048
:10A1B00099FB00F11303262B98BF00202860BBE712
:10A1C00018B915F0A9FC2860B6E729680029B8BFBE
:10A1D0004942002015F00CFC0024ADE718B915F039
:10A1E0008BFC2860A8E72968002015F0B3FD002447
:10A1F000A2E7984810212CB916F045FAC0F30420C4
:10A20000286099E716F03FFA2B681B0203F4F85315
:10A2100020F4F8521A438F48102116F026FA002431
:10A220008AE78C4810212CB916F02DFA00F01F0097
:10A23000286081E716F027FA2A6820F01F0002F054
:10A240001F0202431021834816F00FFA002473E71F
:10A25000002840F0118415F0EBFAC0F300102860DC
:10A260006AE7002800F00B842A687A48112116F06A
:10A27000FCF9002460E780B97648152116F003FA4E
:10A28000002808BF01204FF0807393FBF0F0724B61
:10A290009842D4BF28602B604EE72B686D48002B96
:10A2A00008BF01234FF0807292FBF3F26A4B9A428F
:10A2B000A8BF1A462A60152116F0D7F900243BE7FB
:10A2C00028B96448332116F0DEF9286034E72A689B
:10A2D0006048332116F0C9F900242DE75D486C2150
:10A2E0002CB916F0D0F9C0F38040286024E716F0AE
:10A2F000CAF92B689B0403F4802320F480221A43BC
:10A3000054486C2116F0B1F9002415E751486C212E
:10A310002CB916F0B8F9C0F3C04028600CE716F06D
:10A32000B2F92B68DB0403F4002320F400221A4363
:10A3300048486C2116F099F90024FDE638B9014629
:10A34000444816F0A0F9C0F340002860F4E600216C
:10A35000404816F098F92B685B0003F0020320F0E8
:10A3600002021A433B48002116F07FF90024E3E67D
:10A37000002840F0878315F0FBFB12210646354884
:10A3800016F081F9C0F313027A20D317A6FB00015F
:10A390001DF0A8FA00F11303262B98BF00202860B7
:10A3A000CAE618B915F0D6FB2860C5E62978002062
:10A3B00015F03AFB0024BFE618B915F0D9FB286068
:10A3C000BAE62968002015F03FFB0024B4E654B932
:10A3D00020486C2116F057F9C0F303634FF48070E6
:10A3E00018412860A8E62B68102B39D00ADC013B05
:10A3F000072B0ED8072B0CD8DFE803F015280B2A03
:10A400000B0B0B30802B31D008DC202B2AD0402BBB
:10A410002AD04FF0FF332B6010248DE6B3F5807FF8
:10A42000F7D1002300E008232B606C21094816F0C7
:10A430002AF92B681B0603F0706320F070621A4340
:10A4400004486C2116F011F9002475E60723EBE7A8
:10A450000623E9E7C45FFF1FFFFF0F000523E3E7C3
:10A460000423E1E70323DFE70223DDE70123DBE742
:10A47000BA486C212CB916F006F9C0F3C130286037
:10A480005AE616F000F92B68DB0303F4C03320F41E
:10A49000C0321A43B1486C2116F0E7F800244BE6AD
:10A4A000AE486C212CB916F0EEF8C0F3803028606D
:10A4B00042E616F0E8F82B689B0303F4804320F48F
:10A4C00080421A43A5486C2116F0CFF8002433E6E9
:10A4D000A2486C212CB916F0D6F8C0F300302860E1
:10A4E0002AE616F0D0F82B681B0303F4805320F4FF
:10A4F00080521A4399486C2116F0B7F800241BE6E5
:10A5000096486C21FCB916F0BEF810F4804F4FF05D
:10A510006C01924805D016F0B6F8C0F3C31028605D
:10A520000AE616F0B0F86C2106468C4816F0ABF837
:10A530003105C0F3021302D42B600024FCE543F084
:10A5400008032B60F8E516F09EF810F480444FF0F5
:10A550006C0182480ED016F096F82B68DB0103F4EC
:10A56000F06320F4F0621A437C486C2116F07DF809
:10A570000024E1E516F087F86C21784816F083F89E
:10A580002B681B0203F4006320F400621A43734833
:10A590006C2116F06AF86C21704816F074F82B687C
:10A5A0001B0103F0700320F070021A436B486C210A
:10A5B00016F05BF8C0E569486C21E4B916F063F861
:10A5C00010F4804F4FF06C01644805D016F05BF832
:10A5D000C0F302102860AFE516F055F86C2106466E
:10A5E0005E4816F050F83205C0F3C313A4D543F00B
:10A5F00008032B60A0E516F046F810F480444FF0F5
:10A600006C0156480ED016F03EF82B681B0103F083
:10A61000700320F070021A4350486C2116F025F8A0
:10A62000002489E516F02FF82B68DB0103F4F063B2
:10A6300020F4F0621A4349486C2116F016F87BE5C5
:10A6400046486C212CB916F01EF800F00F00286067
:10A6500072E516F018F82A6820F00F0002F00F02D9
:10A6600002436C213D4816F000F8002464E53B48A5
:10A670006D212CB916F007F8C0F3C03028605BE5F7
:10A6800016F001F82B68DB039BB220F400421A435A
:10A6900032486D2115F0E9FF00244DE52F486D216A
:10A6A0002CB915F0F0FFC0F34130286044E515F0F7
:10A6B000EAFF2B685B0303F4C04320F4C0421A4353
:10A6C00026486D2115F0D1FF002435E523486D2182
:10A6D0002CB915F0D8FFC0F3032028602CE515F045
:10A6E000D2FF2B681B0203F4706320F470621A43DC
:10A6F0001A486D2115F0B9FF00241DE517486D219A
:10A700002CB915F0C0FFC0F34110286014E515F016
:10A71000BAFF2B685B0103F0600320F060021A436C
:10A720000E486D2115F0A1FF002405E50B486D21B1
:10A730002CB915F0A8FF00F00F002860FCE415F01C
:10A74000A2FF2A6820F00F0002F00F0202436D21E1
:10A75000024815F08AFF0024EEE400BFC45FFF1F2B
:10A76000B8486D212CB915F08EFFC0F30060286049
:10A77000E2E415F088FF2B681B0603F0807320F0DD
:10A7800080721A43AF486D2115F06FFF0024D3E4A7
:10A79000AC486D2164B915F076FF031413F0400343
:10A7A000C0F3064018BF6FF07F0318432860C3E46E
:10A7B00015F069FF2B681B0403F4FE0320F4FE026E
:10A7C0001A43A0486D2115F050FF0024B4E49D48C1
:10A7D0006C212CB915F057FFC0F340402860ABE462
:10A7E00015F051FF2B685B0403F4003320F40032B2
:10A7F0001A4394486C2115F038FF00249CE4002C87
:10A8000040F043818F486F2115F03DFFC0F30440B5
:10A81000286091E424B9204615F08EF928608BE475
:10A820002968002015F0F2F8002485E484B98548F1
:10A83000142115F028FF002808BF01204FF0807375
:10A8400093FBF0F0804B9842D4BF28602B6073E4F8
:10A850002B687C48002B08BF01234FF0807292FBCD
:10A86000F3F2794B9A42A8BF1A462A60142115F0D8
:10A87000FCFE002460E473486C212CB915F003FF42
:10A88000C0F34030286057E415F0FDFE2B685B03F1
:10A8900003F4005320F400521A436A486C2115F067
:10A8A000E4FE002448E467486C212CB915F0EBFE67
:10A8B000C0F3035028603FE415F0E5FE2B681B054C
:10A8C00003F4700320F470021A435E486C2115F003
:10A8D000CCFE002430E484B95A48132115F0D3FE8D
:10A8E000002808BF01204FF0807393FBF0F0564B17
:10A8F0009842D4BF28602B601EE42B685148002B7F
:10A9000008BF01234FF0807292FBF3F24E4B9A4244
:10A91000A8BF1A462A60132115F0A7FE00240BE4F5
:10A92000484870212CB915F0AEFEC0F3072028600E
:10A9300002E415F0A8FE2B681B029BB220F47F42B4
:10A940001A434048702115F090FE00213D4815F053
:10A950009AFE2B68002B20F0040218BF042339480C
:10A960001A43002115F081FE0024FFF7E5BB3548AE
:10A9700070212CB915F087FEC0B22860FFF7DCBB50
:10A9800015F081FE2A7820F0FF00024370212D4847
:10A9900015F06BFE0024FFF7CFBB44B929487021A6
:10A9A00015F071FEC0F301402860FFF7C5BB2B68AE
:10A9B000032B6DD87021234815F065FE2B681B040E
:10A9C00003F4403320F440321A431E48702115F03E
:10A9D0004CFE0024FFF7B0BB1A48702134B915F0C3
:10A9E00052FEC0F380402860FFF7A6BB15F04BFE77
:10A9F0002B68002B20F4802218BF4FF480231148CD
:10AA00001A43702115F031FE0024FFF795BB0D4865
:10AA1000702134B915F037FEC0F301502860FFF7FC
:10AA20008BBB15F030FE2B681B0503F4401320F49C
:10AA300040121A430348702115F017FE0024FFF757
:10AA40007BBB00BFC45FFF1FFFFF0F001CBB134891
:10AA50006F2115F018FEC0F309002860FFF76CBBEA
:10AA60000824FFF769BB0424FFF766BB0424FFF743
:10AA700063BB0424FFF760BB0424FFF75DBB042421
:10AA8000FFF75ABB0424FFF757BB0424FFF754BB5E
:10AA90001024FFF751BB0424FFF74EBBC45FFF1F18
:10AAA00007B5019201AB02460120FFF7B4FA03B0EB
:10AAB0005DF804FB134602460020FFF7ACBA0148DC
:10AAC00015F06BBEC45FFF1F08B5002014F0F4FF43
:10AAD00010B1094B987870B1084815F047FE4FF453
:10AAE000003015F077F8064900231846D1E9001226
:10AAF00014F0C6FE012008BD340BFF1FC45FFF1F0A
:10AB0000A019FF1F022804BF0B4B93F8F00030B9C7
:10AB10000A4BDB681B685B69094A90681847012883
:10AB200009D1054B93F8F030012B04D1034BDB68BE
:10AB30001B689B69F0E77047885EFF1F1C9D020041
:10AB4000A019FF1F0346052B10B5084614460CD06C
:10AB500007D8023B022B06D815F00AF82060002027
:10AB600010BD182BF8D00420FAE715F01DF8F5E712
:10AB700038B50D46044620B914F09EFF28602046E3
:10AB800038BD0820FCE7012910B5044608D1054A64
:10AB9000702115F06AFD2046BDE8104015F0BCBDDF
:10ABA00010BD00BFC804050038B50D46044648B9BD
:10ABB00014F062FF296801442960204614F0DAFD90
:10ABC000204638BD0820FCE7052803D8012803D813
:10ABD000042070471828FBD1002010607047054BF7
:10ABE000DB6E0846114603B11847034B1B68DB6850
:10ABF000FAE700BF885EFF1F4862FF1F2DE9F041A2
:10AC00006B4D6C4FD5F890206B4BDFF80C826B4C82
:10AC10003846012115F064FD6949384615F0D1FD2B
:10AC2000D8F80C60736803F16802A26003F59472AF
:10AC3000226003F5A472626003F5D472226203F508
:10AC4000E472626203F55272E26003F55A7203F530
:10AC50006A70226103F5627203F57273E36133680F
:10AC600062611B69A06198473368E0691B69984776
:10AC7000336860691B69984733682068DB689847C8
:10AC800033686068DB6898473368A068DB6898477A
:10AC900033682069DB6898473368E068DB68984769
:10ACA0003368606ADB6898473368206ADB689847D6
:10ACB0003368606A9B6998473368206A9B69984744
:10ACC000336860699B6998473368E0689B69984777
:10ACD000D8F810203B4B02F114011960736803F59A
:10ACE000027393614FF4003014F074FF0023D4E931
:10ACF0000012184614F0C4FDD5F89030324AC3F85B
:10AD00000422324AC3F808220122AF671A80304B6E
:10AD1000C5F89C302F4BC5F898302F4BC5F89430B0
:10AD20002E4BC5F8A0302E4BC5F8B4302D4BC5F8CE
:10AD3000B0302D4BC5F8A4302C4BC5F8A8302C4BA7
:10AD4000C5F8C4302B4BC5F8C0302B4BC5F8D030FC
:10AD50002A4BC5F8CC302A4BC5F8C830294BC5F86A
:10AD6000DC3085F88C204FF4F0733222C5E92132B3
:10AD7000254BC5F8D430254BC5F8E8300220244BCC
:10AD8000C5F8EC30FFF7BEFE3368606ADB689847B1
:10AD9000606A204C0423437533681B689847236816
:10ADA00098470021A3680846BDE8F041184700BF56
:10ADB000885EFF1FC45FFF1FD8800200A019FF1F1D
:10ADC00087AB00004862FF1FC9AA0000BFAA0000AD
:10ADD000FB9F000015A0000011A000000DA00000C6
:10ADE000B5AA0000A1AA0000E99F0000A9AB0000DD
:10ADF000DD9F00009D9F0000B19F0000CD9E0000E0
:10AE000071AB000005AB0000519E0000C9AB000013
:10AE100045AB0000E00AFF1F1C9D020038B5184B2F
:10AE2000184CDD6820682B685B6998472B68606860
:10AE30009B6898472B68A0689B6898472B68E068D8
:10AE40009B6898472B6820699B6898472B686069C6
:10AE50009B6898472B68A0699B6898472B68E069B6
:10AE60009B6898472B68206A9B68984714F02AFFD4
:10AE7000054B5B689847002384F8243038BD00BF39
:10AE80001C9D0200D419FF1FE00AFF1F10B50348E4
:10AE9000144615F01EFD206010BD00BF5062FF1F5C
:10AEA000014815F008BD00BF5062FF1F10B50446F1
:10AEB00018B914F05FFC204610BD0820FCE710B55F
:10AEC000044618B914F030FC204610BD0820FCE7F9
:10AED0000021F4E74942F2E7F1E770B504461D4668
:10AEE000002940F01F85332A00F28280332A00F2C5
:10AEF0001F85DFE812F0850090009B00A600C700C8
:10AF0000D500E000F8000F011D051D051D051D05FC
:10AF10001D051D051D051D051D051D051D051D0521
:10AF200018011D05220147011D0555016D0185010F
:10AF30009F011D051D051D051D051D051D051D0583
:10AF40001D051D051D051D051D051D051D051D05F1
:10AF50001D051D051D051D051D05B801C3018C3A04
:10AF6000422A00F2E284DFE812F09401E004E004F7
:10AF7000E004E004E004E004E004E004E004E004B1
:10AF8000E004E004E004E004E004E004E004E004A1
:10AF9000E004E004E004E501FD0115022D02880251
:10AFA000CD02E402FB0213032B0343035D0375038D
:10AFB000E004E004E004E0049403AC03B703C3033B
:10AFC000E004E803000418043D046404E004E00421
:10AFD0007A049904E004E004E004E004E004E004FE
:10AFE000E004E004E004E004E004B404E004D3047A
:10AFF00002F17403DBB2422BB1D90424204670BDA8
:10B0000018B914F049FD2860F8E72968002014F009
:10B01000B1FB0024F2E718B914F02EFD2860EDE72B
:10B020002968002014F0C8FC0024E7E718B914F0E0
:10B0300053FD2860E2E72968002014F075FB002426
:10B04000DCE7002840F0778414F084FD18B914F090
:10B0500033FD2860D2E7204614F08AFD122106460F
:10B06000AD4815F036FCC0F313027A20D317A6FBC7
:10B0700000011CF037FC00F11303262B98BF0020C1
:10B080002860BBE718B914F047FD2860B6E72968C7
:10B090000029B8BF4942002014F0AAFC0024ADE703
:10B0A00018B914F029FD2860A8E72968002014F0D9
:10B0B00051FE0024A2E7984810212CB915F009FC94
:10B0C000C0F30420286099E715F003FC2B681B02ED
:10B0D00003F4F85320F4F8521A438F48102115F066
:10B0E000EAFB00248AE78C4810212CB915F0F1FB0B
:10B0F00000F01F00286081E715F0EBFB2A6820F0C4
:10B100001F0002F01F0202431021834815F0D3FBF9
:10B11000002473E7002840F0118414F089FBC0F389
:10B12000001028606AE7002800F00B842A687A483B
:10B13000112115F0C0FB002460E780B97648152185
:10B1400015F0C7FB002808BF01204FF0807393FB68
:10B15000F0F0724B9842D4BF28602B604EE72B680A
:10B160006D48002B08BF01234FF0807292FBF3F271
:10B170006A4B9A42A8BF1A462A60152115F09BFB1C
:10B1800000243BE728B96448332115F0A2FB28606E
:10B1900034E72A686048332115F08DFB00242DE741
:10B1A0005D486C212CB915F094FBC0F380402860F9
:10B1B00024E715F08EFB2B689B0403F4802320F416
:10B1C00080221A4354486C2115F075FB002415E7C2
:10B1D00051486C212CB915F07CFBC0F3C0402860AD
:10B1E0000CE715F076FB2B68DB0403F4002320F456
:10B1F00000221A4348486C2115F05DFB0024FDE64F
:10B2000038B90146444815F064FBC0F3400028609B
:10B21000F4E60021404815F05CFB2B685B0003F06E
:10B22000020320F002021A433B48002115F043FBC1
:10B230000024E3E6002840F0878314F099FC1221F3
:10B240000646354815F045FBC0F313027A20D317A4
:10B25000A6FB00011CF046FB00F11303262B98BF50
:10B2600000202860CAE618B914F074FC2860C5E60E
:10B270002978002014F0D8FB0024BFE618B914F098
:10B2800077FC2860BAE62968002014F0DDFB002472
:10B29000B4E654B920486C2115F01BFBC0F30363DE
:10B2A0004FF4807018412860A8E62B68102B39D025
:10B2B0000ADC013B072B0ED8072B0CD8DFE803F084
:10B2C00015280B2A0B0B0B30802B31D008DC202BE0
:10B2D0002AD0402B2AD04FF0FF332B6010248DE66C
:10B2E000B3F5807FF7D1002300E008232B606C21A9
:10B2F000094815F0EEFA2B681B0603F0706320F086
:10B3000070621A4304486C2115F0D5FA002475E6E2
:10B310000723EBE70623E9E75062FF1FFFFF0F005B
:10B320000523E3E70423E1E70323DFE70223DDE767
:10B330000123DBE7BA486C212CB915F0CAFAC0F337
:10B34000C13028605AE615F0C4FA2B68DB0303F419
:10B35000C03320F4C0321A43B1486C2115F0ABFA67
:10B3600000244BE6AE486C212CB915F0B2FAC0F3BC
:10B370008030286042E615F0ACFA2B689B0303F49A
:10B38000804320F480421A43A5486C2115F093FABB
:10B39000002433E6A2486C212CB915F09AFAC0F3C8
:10B3A000003028602AE615F094FA2B681B0303F49A
:10B3B000805320F480521A4399486C2115F07BFA8F
:10B3C00000241BE696486C21FCB915F082FA10F4B3
:10B3D000804F4FF06C01924805D015F07AFAC0F317
:10B3E000C31028600AE615F074FA6C2106468C48F2
:10B3F00015F06FFA3105C0F3021302D42B6000245C
:10B40000FCE543F008032B60F8E515F062FA10F450
:10B4100080444FF06C0182480ED015F05AFA2B6828
:10B42000DB0103F4F06320F4F0621A437C486C21E2
:10B4300015F041FA0024E1E515F04BFA6C2178484B
:10B4400015F047FA2B681B0203F4006320F4006236
:10B450001A4373486C2115F02EFA6C21704815F0D0
:10B4600038FA2B681B0103F0700320F070021A43B6
:10B470006B486C2115F01FFAC0E569486C21E4B9EE
:10B4800015F027FA10F4804F4FF06C01644805D096
:10B4900015F01FFAC0F302102860AFE515F019FA95
:10B4A0006C2106465E4815F014FA3205C0F3C3134A
:10B4B000A4D543F008032B60A0E515F00AFA10F4B8
:10B4C00080444FF06C0156480ED015F002FA2B68FC
:10B4D0001B0103F0700320F070021A4350486C21E6
:10B4E00015F0E9F9002489E515F0F3F92B68DB0183
:10B4F00003F4F06320F4F0621A4349486C2115F01C
:10B50000DAF97BE546486C212CB915F0E2F900F038
:10B510000F00286072E515F0DCF92A6820F00F00B2
:10B5200002F00F0202436C213D4815F0C4F90024DB
:10B5300064E53B486D212CB915F0CBF9C0F3C03060
:10B5400028605BE515F0C5F92B68DB039BB220F49E
:10B5500000421A4332486D2115F0ADF900244DE543
:10B560002F486D212CB915F0B4F9C0F34130286093
:10B5700044E515F0AEF92B685B0303F4C04320F4F7
:10B58000C0421A4326486D2115F095F9002435E58F
:10B5900023486D212CB915F09CF9C0F303202860D5
:10B5A0002CE515F096F92B681B0203F4706320F468
:10B5B00070621A431A486D2115F07DF900241DE5CB
:10B5C00017486D212CB915F084F9C0F3411028609B
:10B5D00014E515F07EF92B685B0103F0600320F0A1
:10B5E00060021A430E486D2115F065F9002405E547
:10B5F0000B486D212CB915F06CF900F00F00286094
:10B60000FCE415F066F92A6820F00F0002F00F0242
:10B6100002436D21024815F04EF90024EEE400BF0C
:10B620005062FF1FB8486D212CB915F052F9C0F3D4
:10B6300000602860E2E415F04CF92B681B0603F06B
:10B64000807320F080721A43AF486D2115F033F9F2
:10B650000024D3E4AC486D2164B915F03AF9031421
:10B6600013F04003C0F3064018BF6FF07F03184388
:10B670002860C3E415F02DF92B681B0403F4FE03C6
:10B6800020F4FE021A43A0486D2115F014F900249D
:10B69000B4E49D486C212CB915F01BF9C0F340406F
:10B6A0002860ABE415F015F92B685B0403F4003354
:10B6B00020F400321A4394486C2115F0FCF8002461
:10B6C0009CE4002C40F043818F486F2115F001F974
:10B6D000C0F30440286091E424B9204614F02CFA09
:10B6E00028608BE42968002014F090F9002485E498
:10B6F00084B98548142115F0ECF8002808BF012012
:10B700004FF0807393FBF0F0804B9842D4BF2860D9
:10B710002B6073E42B687C48002B08BF01234FF09B
:10B72000807292FBF3F2794B9A42A8BF1A462A60C4
:10B73000142115F0C0F8002460E473486C212CB982
:10B7400015F0C7F8C0F34030286057E415F0C1F891
:10B750002B685B0303F4005320F400521A436A4839
:10B760006C2115F0A8F8002448E467486C212CB936
:10B7700015F0AFF8C0F3035028603FE415F0A9F8C6
:10B780002B681B0503F4700320F470021A435E4813
:10B790006C2115F090F8002430E484B95A48132144
:10B7A00015F097F8002808BF01204FF0807393FB35
:10B7B000F0F0564B9842D4BF28602B601EE42B68F3
:10B7C0005148002B08BF01234FF0807292FBF3F227
:10B7D0004E4B9A42A8BF1A462A60132115F06BF807
:10B7E00000240BE4484870212CB915F072F8C0F31E
:10B7F0000720286002E415F06CF82B681B029BB24E
:10B8000020F47F421A434048702115F054F800217B
:10B810003D4815F05EF82B68002B20F0040218BF9D
:10B82000042339481A43002115F045F80024FFF796
:10B83000E5BB354870212CB915F04BF8C0B2286033
:10B84000FFF7DCBB15F045F82A7820F0FF00024333
:10B8500070212D4815F02FF80024FFF7CFBB44B915
:10B860002948702115F035F8C0F301402860FFF732
:10B87000C5BB2B68032B6DD87021234815F029F820
:10B880002B681B0403F4403320F440321A431E4853
:10B89000702115F010F80024FFF7B0BB1A48702192
:10B8A00034B915F016F8C0F380402860FFF7A6BB46
:10B8B00015F00FF82B68002B20F4802218BF4FF4EE
:10B8C000802311481A43702114F0F5FF0024FFF77C
:10B8D00095BB0D48702134B914F0FBFFC0F3015043
:10B8E0002860FFF78BBB14F0F4FF2B681B0503F4F3
:10B8F000401320F440121A430348702114F0DBFF78
:10B900000024FFF77BBB00BF5062FF1FFFFF0F004B
:10B910001CBB13486F2114F0DCFFC0F30900286042
:10B92000FFF76CBB0824FFF769BB0424FFF766BB75
:10B930000424FFF763BB0424FFF760BB0424FFF774
:10B940005DBB0424FFF75ABB0424FFF757BB042454
:10B95000FFF754BB1024FFF751BB0424FFF74EBB85
:10B960005062FF1F07B5019201AB02460120FFF7AD
:10B97000B4FA03B05DF804FB134602460020FFF75B
:10B98000ACBA014815F01DB85062FF1F08B5002081
:10B9900014F092F810B1094B987870B1084814F07F
:10B9A000FDFF4FF4003014F015F906490023184646
:10B9B000D1E9011213F064FF012008BD340BFF1F11
:10B9C0005062FF1FD419FF1F022804BF0B4B93F8CE
:10B9D000F00030B90A4BDB681B685B69094A1068E4
:10B9E0001847012809D1054B93F8F030012B04D1F9
:10B9F000034BDB681B689B69F0E77047885EFF1F9D
:10BA00001C9D0200D419FF1F10B51446062805D846
:10BA1000DFE800F00618162732374100042010BD79
:10BA2000136844F62062934239D842F21172B3FB94
:10BA3000F2F102FB11311B4B89B29B680020984741
:10BA40000020ECE7184B2468DA68D2E9003000F5F2
:10BA5000F4701CB1DB6900219847F1E79B689847B7
:10BA6000EEE7114B1168DB68104A1B685069DB690F
:10BA7000003918BF0121EFE7084613F0D9FE206016
:10BA8000DEE7094B094ADB6858681B6800F59470CB
:10BA9000DB685061E3E70220FFF796FFD0E7102054
:10BAA000BDE700BFE00AFF1F1C9D0200D419FF1F65
:10BAB0000346052B10B5084614460CD007D8023BA8
:10BAC000022B06D814F054F82060002010BD182B6B
:10BAD000F8D00420FAE714F067F8F5E738B50D461A
:10BAE000044620B913F0E8FF2860204638BD08203E
:10BAF000FCE738B5184D044695F8240001281CD001
:10BB000002281FD02146154814F073FF002013F0BF
:10BB100049FE002013F08CFE10F008041BD18206B1
:10BB200019D50E486F2114F0D4FEC30113D5204659
:10BB30000221BDE8384013F055BEAC62022385F8FF
:10BB40002430DFE7AB6AE31AB3F5FA6FDAD9FFF70F
:10BB50003BFF0323F3E738BDD419FF1F5062FF1FDB
:10BB6000012910B504460DD1074A702114F0A3FE37
:10BB70002046064A0A2114F09EFE2046BDE81040E9
:10BB800014F0E8BE10BD00BF1E000CC40004080085
:10BB900038B50D46044648B913F06EFF29680144D4
:10BBA0002960204613F0E6FD204638BD0820FCE75A
:10BBB000052803D8012803D8042070471828FBD192
:10BBC000002010607047054BDB6E0846114603B13C
:10BBD0001847034B1B68DB68FAE700BF885EFF1F4E
:10BBE0004C62FF1F2DE9F0415C4C5D4FD4F8902072
:10BBF0005C4BDFF8D0815C4D3846012114F08DFE9E
:10BC00005A49384614F0F1FED8F80C60736803F115
:10BC100068022A6003F594726A6003F5A472AA6050
:10BC200003F5E472EA6003F552722A6103F55A7271
:10BC300003F562706A6103F56A7203F572732B6231
:10BC40003368EA611B69A861984733682868DB6834
:10BC5000984733686868DB6898473368A868DB688A
:10BC600098473368E868DB68984733686869DB6839
:10BC7000984733682869DB6898473368E8685B69E8
:10BC800098473368A8699B699847336828699B6916
:10BC90009847D8F81020364B02F1140119607368E8
:10BCA00003F5027393614FF4003013F093FF002308
:10BCB000D5E90112184613F0E3FDD4F890202D4B7E
:10BCC000C2F804322C4BC2F808320123A767138054
:10BCD0002A4AC4F89C202A4AC4F89820294AC4F861
:10BCE0009420294AC4F8A020284AC4F8B420284A3D
:10BCF000C4F8B020274AC4F8A420274AC4F8A820D2
:10BD0000264AC4F8C420264AC4F8C020254AC4F8EC
:10BD1000D020254AC4F8CC20244AC4F8C820244A9C
:10BD2000C4F8DC2032214FF4F072C4E92121214A09
:10BD3000C4F8D420204AC4F8E820204A84F88C3083
:10BD4000C4F8EC201E4C85F8243023689847002165
:10BD5000A3680846BDE8F041184700BF885EFF1F92
:10BD60005062FF1FD8820200D419FF1F61BB000080
:10BD70004C62FF1F8DB9000083B90000BFAE000008
:10BD8000D9AE0000D5AE0000D1AE000079B90000F8
:10BD900065B90000ADAE000091BB0000A1AE00008F
:10BDA0008DAE0000F3BA000009BA0000DDBA000051
:10BDB000C9B900001DAE0000B1BB0000B1BA00005F
:10BDC000E00AFF1F1C9D0200024B0022C3F88020E6
:10BDD000704700BF885EFF1F014814F04DBE00BFD2
:10BDE0000C1AFF1F10B50348144614F078FE2060AB
:10BDF00010BD00BF0C1AFF1F08B50146034814F020
:10BE0000C9FEBDE80840002013F0CCBC0C1AFF1F8F
:10BE100038B504461546084624B913F009FD2860D4
:10BE2000204638BD0420FCE710B5044618B913F0CD
:10BE3000A1FC204610BD0820FCE710B5044618B947
:10BE400013F072FC204610BD0820FCE70021F4E747
:10BE50004942F2E7F1E7014814F004BF0C1AFF1F52
:10BE600010B54FF40030074C13F0B4FE0023D4E9B2
:10BE7000A212184613F004FD2046BDE8104014F04D
:10BE8000DABE00BF0C1AFF1F022804BF0C4B93F848
:10BE9000F00038B90B4BDB681B685B690A4AD2F8C3
:10BEA00084021847012809D1054B93F8F030012B83
:10BEB00004D1044BDB681B689B69EFE7704700BF48
:10BEC000885EFF1F1C9D02000C1AFF1F38B5002062
:10BED000FFF7DAFF144B154CDD68D4F884022B68A9
:10BEE0009B6898472B68D4F888029B6898472B6812
:10BEF000D4F88C029B6898472B68D4F890029B6812
:10BF000098472B68D4F894029B6898472B68D4F81C
:10BF100098029B6898472B68D4F89C029B689847C6
:10BF2000BDE8384013F0CEBE1C9D02000C1AFF1F66
:10BF300038B50D46044648B913F09EFD2968014402
:10BF40002960204613F016FC204638BD0820FCE787
:10BF500008B50B461146F3B905281ED8DFE800F0F6
:10BF600003080C1D1017002013F004FC002008BD6E
:10BF7000002013F021FDF9E7002013F0D5FBF5E7D1
:10BF8000002AB8BF5142002013F032FDEEE7002036
:10BF900013F0E0FEEAE70820E9E70420E7E710B540
:10BFA000144629BB062825D8DFE800F0040A0E1243
:10BFB000161A1E00002013F06FFD2060002010BD37
:10BFC000002013F059FDF8E7002013F085FDF4E799
:10BFD000002013F071FDF0E7002013F09DFDECE769
:10BFE000002013F089FDE8E7034814F044FEE4E77D
:10BFF0000820E4E70420E2E70C1AFF1F0248DBB246
:10C00000D0F8A00211F05CBE0C1AFF1F012214F040
:10C0100005B870B50122534E534C1146072013F05A
:10C02000A3FFF5686B6803F59472C4F8882203F5E2
:10C03000A472C4F88C2203F1C802C4F8902203F160
:10C04000E80203F16800C4F8942203F18802A833DF
:10C05000C4F89C322B68C4F89822DB68C4F88402C8
:10C0600098472B68D4F88802DB6898472B68D4F887
:10C070008C02DB6898472B68D4F89002DB689847FD
:10C080002B68D4F89402DB6898472B68D4F89802A0
:10C090001B6998472B68D4F89C021B699847F36A80
:10C0A000C4F8A03200251D705B6898472F4B3049BB
:10C0B000D3F89020C2F804122E49C2F808120126C3
:10C0C0002D491680C3F89C102C49C3F898102C49B0
:10C0D000C3F894102B49C3F8A0102B49C3F8B4102F
:10C0E0002A49C3F8B0102A49C3F8A4102949C3F853
:10C0F000A8102949C3F8C4102849C3F8C01028491A
:10C10000C3F8CC102749C3F8DC102749C3F8D8106E
:10C1100032204FF4C371C3E921102449C3F8D4106D
:10C12000234983F88C60C3F8D01020462946214B60
:10C1300014F014FD4FF4003013F04CFDD4E9A212BA
:10C140002B46284613F09CFB28464FF4484113F039
:10C150004FFC28464FF4484113F0FCFD3046BDE843
:10C16000704091E61C9D02000C1AFF1F885EFF1FA5
:10C1700061BE000057BE00003BBE000055BE00007F
:10C1800051BE00004DBE00009FBF000051BF000027
:10C1900029BE000031BF0000D9BD0000E5BD000090
:10C1A00011BE000089BE0000C9BD0000CDBE000068
:10C1B000F9BD0000D8840200024B0022C3F88020A1
:10C1C000704700BF885EFF1F014814F057BD00BFD5
:10C1D000BC1CFF1F10B50348144614F086FD2060F8
:10C1E00010BD00BFBC1CFF1F08B50146034814F07A
:10C1F000DFFDBDE80840002013F0D4BABC1CFF1FCF
:10C2000010B50B46144606286AD8DFE800F004098A
:10C210000F131B284A00084613F00AFB206003E0B6
:10C220002178304814F038FE002010BD2D4814F05D
:10C2300030FEF3E72C4B0220DB6898475023B0FB1D
:10C24000F3F0EBE723684FF4FA5159436423B1FB51
:10C25000F3F1254B89B29B6802209847E4E72168F7
:10C26000204A013BD2F8880201F00301042B06D8D2
:10C27000DFE803F0030B0E111400D2F88C021B4B05
:10C28000DB681B68DB699847CEE7D2F89802F6E7CF
:10C29000D2F89C02F3E7D2F8A802F0E7D2F8AC0299
:10C2A000EDE7104A4B1ED2F88802042B06D8DFE8CF
:10C2B00003F0030B0E111400D2F88C020B4BDB6859
:10C2C0001B681B6A9847A9E7D2F89802F6E7D2F8EC
:10C2D0009C02F3E7D2F8A802F0E7D2F8AC02EDE74F
:10C2E0000420A2E7BC1CFF1FE00AFF1F1C9D0200E8
:10C2F00010B5044618B913F03DFA204610BD0820C9
:10C30000FCE710B5044618B913F00EFA204610BD2C
:10C310000820FCE70021F4E74942F2E7F1E770B5B5
:10C3200004461D460E46002940F06483CE2A0CD8F0
:10C33000A12A0CD81D2A6BD9332A00F069818C2AD6
:10C3400000F06F81322A00F05A810424A6E0A23A5C
:10C350002C2AFAD801A353F822F000BFB1C600007E
:10C360004BC300004BC30000D3C6000011C7000040
:10C370008BC70000AFC70000DDC70000FFC700008B
:10C3800021C8000043C800004BC300005DC8000086
:10C390004BC300004BC300004BC300004BC3000065
:10C3A0006FC8000091C80000A5C80000D7C80000F1
:10C3B0004BC300004BC300004BC300000DC900007D
:10C3C00031C900004BC300004BC300004BC3000049
:10C3D00073C90000A5C900004BC300004BC3000097
:10C3E0004BC300004BC300004BC300004BC3000015
:10C3F0004BC300004BC300004BC300004BC3000005
:10C400004BC30000C9C900004BC30000EBC90000CA
:10C410001D2A9AD801A353F822F000BF95C400004A
:10C42000ADC40000BFC40000D1C40000DDC40000E2
:10C43000F5C4000007C5000033C5000055C5000065
:10C440004BC300004BC300004BC300004BC30000B4
:10C450004BC300004BC300004BC300004BC30000A4
:10C460004BC300004BC300004BC300004BC3000094
:10C470004BC300004BC3000065C500004BC3000068
:10C480004BC300004BC300004BC30000A5C5000018
:10C49000CFC5000020B913F0FFFA2860204670BD18
:10C4A0002968002013F066F90024F7E710B913F0AB
:10C4B000E3FAF2E72968002013F07EFAF4E710B9F6
:10C4C00013F00AFBE9E72968002013F02DF9EBE7E8
:10C4D00000287FF43AAF13F0EFFADEE710B913F05B
:10C4E0001BFBDAE729680029B8BF4942002013F096
:10C4F0007FFAD9E710B913F0FFFACEE729680020D8
:10C5000013F028FCD0E7B348102124B914F0EDFB58
:10C51000C0F30420C1E714F0E8FB2B681B0203F40E
:10C52000F85320F4F8521A431021AA4814F0A6FB3D
:10C53000BAE7A848102124B914F0D7FB00F01F0077
:10C54000ABE714F0D2FB2A6820F01F0002F01F02B4
:10C550000243E9E700287FF4F8AE13F069F9C0F36D
:10C5600000109AE79B499C486CB9D1F8B032002B77
:10C5700008BF01234FF0807292FBF3F39842D4BFBF
:10C5800028602B608AE72A68002A08BF01224FF042
:10C59000807393FBF2F38342A8BF03462B60C1F87C
:10C5A000B03281E730B901468A4814F09EFBC0F3EF
:10C5B000400072E78748002114F097FB2B685B006E
:10C5C00003F0020320F002021A430021ADE7002825
:10C5D0007FF4BBAE13F0CCFA122106467D4814F06E
:10C5E00084FBC0F313027A20D317A6FB00011BF0D3
:10C5F00079F900F11303262B98BF00204DE710B9FD
:10C6000013F0A8FA49E71978304613F00DFA4BE712
:10C6100010B913F0ADFA40E71968304613F014FA78
:10C6200042E748B96B486C2114F05FFBC0F3036329
:10C630004FF48070184130E71B68102B30D00ADCB3
:10C64000013B072B0ED8072B0CD8DFE803F015238E
:10C650000B250B0B0B27802B28D008DC202B21D09F
:10C66000402B21D04FF0FF332B60102416E7B3F599
:10C67000807FF7D1002300E008232B6055486C2110
:10C6800014F033FB2B681B0603F0706320F070621C
:10C690001A438AE00723F0E70623EEE70523ECE7D9
:10C6A0000423EAE70323E8E70223E6E70123E4E7BC
:10C6B00048486C2124B914F018FBC0F3C130ECE6F3
:10C6C00014F013FB2B68DB0303F4C03320F4C032F7
:10C6D000DEE700287FF439AE6C213E4814F005FBFC
:10C6E00010F4804F4FF06C013A4804D014F0FDFA7A
:10C6F000C0F3C310D1E614F0F8FA6C2106463548B1
:10C7000014F0F3FAC0F3021332051BD42B60CBE60E
:10C7100030486C21D4B914F0E8FA10F4804F4FF08F
:10C720006C012C4804D014F0E0FAC0F30210B4E617
:10C7300014F0DBFA6C210646264814F0D6FAC0F352
:10C74000C313E1E743F008032B60A7E614F0CDFA2A
:10C7500010F480444FF06C011E4808D014F0C5FA64
:10C760002B681B0103F0700320F0700290E714F0B7
:10C77000BCFA2B68DB0103F4F06320F4F0621A4387
:10C7800014486C2114F07AFA88E612486C2124B916
:10C7900014F0ABFA00F00F007FE614F0A6FA2A6856
:10C7A00020F00F0002F00F0202436C21BDE60948A1
:10C7B000422124B914F099FAC0F3C0306DE614F0A8
:10C7C00094FA2B68DB039BB220F400421A43422107
:10C7D000ABE600BFBC1CFF1FFFFF0F0086484221D5
:10C7E00024B914F082FAC0F3413056E614F07DFA11
:10C7F0002B685B0303F4C04320F4C042E6E77E48A5
:10C80000422124B914F071FAC0F3032045E614F074
:10C810006CFA2B681B0203F4706320F47062D5E796
:10C820007548422124B914F060FAC0F3411034E68F
:10C8300014F05BFA2B685B0103F0600320F06002E8
:10C84000C4E76D484221002CA2D014F04EFA2A68A9
:10C8500020F00F0002F00F020243B8E720B9402198
:10C86000654814F042FA18E62A6840215DE66248FD
:10C870006C2124B914F039FAC0F340400DE614F0ED
:10C8800034FA2B685B0403F4003320F40032FFE633
:10C8900000287FF45AAD58486F2114F026FAC0F3EF
:10C8A0000440FAE510B913F047F9F6E529680020CD
:10C8B00013F0ACF82B685149B3EBE30309D04FF008
:10C8C000807292FBF3F28A42A8BF0A462A601421C2
:10C8D0002BE60A46FAE760B91421474814F005FA36
:10C8E00000284FF0807308BF012093FBF0F0434B0A
:10C8F00044E62B68002B08BF01234FF0807292FBA7
:10C90000F3F23E4B9A42A8BF1A46DFE708B913215B
:10C91000E3E72B68002B08BF01234FF0807292FBE6
:10C92000F3F2364B9A42A8BF1A462A601321FCE55F
:10C930003148702124B914F0D8F9C0F30720ACE5D0
:10C9400014F0D3F92B681B029BB220F47F421A43E8
:10C950002948702114F092F92748002114F0C5F9F4
:10C960002B68002B20F00400D4BF042200220243D5
:10C970002BE630B92048702114F0B7F9C0F301401C
:10C980008BE52B68032B3FF670AE1B48702114F02B
:10C99000ACF92B681B0403F4403320F440321A43F3
:10C9A0007021C2E51448702124B914F09EF9C0F337
:10C9B000804072E514F099F92B68002B20F4802256
:10C9C00018BF4FF48023EAE70B48702124B914F014
:10C9D0008CF9C0F3015060E514F087F92B681B0552
:10C9E00003F4401320F44012D9E700287FF4ADACE3
:10C9F000412135E7082451E5BC1CFF1FFFFF0F0054
:10CA000007B5019201AB02460120FFF788FC03B095
:10CA10005DF804FB13460246002080E4014814F050
:10CA20002FBA00BFBC1CFF1F10B5084C4FF40030DC
:10CA300013F0D0F8D4E9A412D4F8A032002012F0F8
:10CA40001FFF2046BDE8104014F003BABC1CFF1FB6
:10CA5000022804BF0C4B93F8F00038B90B4BDB688D
:10CA60001B685B690A4AD2F888021847012809D175
:10CA7000054B93F8F030012B04D1044BDB681B68A5
:10CA80009B69EFE7704700BF885EFF1F1C9D020097
:10CA9000BC1CFF1F70B50020FFF7DAFF1D4B1E4CBA
:10CAA000DD68D4F888022B689B6898472B68D4F817
:10CAB0008C029B6898472B68D4F890029B68984733
:10CAC0002B68D4F894029B6898472B68D4F8980296
:10CAD0009B6898472B68D4F89C029B6898472B6802
:10CAE000D4F8A0029B6898472B68D4F8A4029B68EE
:10CAF00098472B68D4F8AC029B6898472B68D4F809
:10CB0000A8029B68984713F0DDF8044BBDE870401D
:10CB10005B6818471C9D0200BC1CFF1FE00AFF1F3A
:10CB200038B50D46044648B912F0A6FF29680144FD
:10CB30002960204612F01EFE204638BD0820FCE782
:10CB40000248DBB2D0F8B40211F0BAB8BC1CFF1F27
:10CB5000012213F063BAF7B56B4F6C4C01221146FA
:10CB6000072013F001FAFD686B6803F5B472C4F88E
:10CB70008C2203F59472C4F8902203F5A472C4F8D1
:10CB8000942203F1C802C4F8982203F1E802C4F821
:10CB90009C2203F1880203F16800C4F8A02203F18B
:10CBA000A80203F5C473C4E9AA302B68C4F8A42210
:10CBB0000026DB68C4F8B062C4F8880298472B6886
:10CBC000D4F88C02DB6898472B68D4F89002DB68B5
:10CBD00098472B68D4F89402DB6898472B68D4F800
:10CBE0009802DB6898472B68D4F89C02DB6898476A
:10CBF0002B68D4F8A0021B6998472B68D4F8A402CC
:10CC00001B6998472B68D4F898029B6998472B6852
:10CC1000D4F89C029B699847FB6AC4F8B432012798
:10CC20001F705B6898473A4A3A49D2F8903082F8C8
:10CC30008C70C3F804123849C3F808123749C2F897
:10CC40009C103749C2F898103649C2F894103649FA
:10CC5000C2F8A0103549C2F8B4103549C2F8B01076
:10CC60003449C2F8A4103449C2F8A8103349C2F8B4
:10CC7000C4103349C2F8C0103249C2F8CC1032494E
:10CC8000C2F8DC103149C2F8D81032204FF4C37119
:10CC9000C2E921102E49C2F8D4102E49C2F8D01092
:10CCA0002D4A009231463246204614F061F84FF486
:10CCB000003012F08FFFD4E9A412D4F8A03230462D
:10CCC00012F0DEFD30464FF4484112F091FE4FF471
:10CCD0004841304613F03EF82B68D4F8A802DB68D0
:10CCE0009847D4F8A8021D4C042343752B681B6891
:10CCF000984723689847A3683146022098473846EA
:10CD000003B0BDE8F040A3E61C9D0200BC1CFF1F61
:10CD1000885EFF1F29CA00001DCA000003C300006F
:10CD20001DC3000019C3000015C3000015CA000090
:10CD300001CA0000F1C2000021CB0000C9C10000FF
:10CD4000D5C1000001C2000051CA0000B9C10000F5
:10CD500095CA0000E9C10000D8860200E00AFF1F62
:10CD6000024B0022C3F88020704700BF885EFF1F7F
:10CD7000074870B550F8046B0C46154614F0EEF8F1
:10CD80002B46014622463046BDE8704011F003B8FC
:10CD9000801FFF1F074870B550F8046B0C461546FE
:10CDA00014F0DCF82B46014622463046BDE87040C0
:10CDB00010F0AABF801FFF1F08B5064A0146D2F82F
:10CDC00094320020043214F0AAF8BDE80840002094
:10CDD00012F0E8BC801FFF1F38B504461546084610
:10CDE00024B912F025FD2860204638BD0420FCE758
:10CDF00010B5044618B912F0BDFC204610BD08203D
:10CE0000FCE710B5044618B912F08EFC204610BDA0
:10CE10000820FCE70021F4E74942F2E7F1E7024B82
:10CE2000D3F8940214F092B8801FFF1F10B54FF48E
:10CE30000030074C12F0CEFE0023D4E9A7121846AA
:10CE400012F01EFDD4F89402BDE8104014F076B83C
:10CE5000801FFF1F022804BF0C4B93F8F00038B965
:10CE60000B4BDB681B685B690A4AD2F898021847CB
:10CE7000012809D1054B93F8F030012B04D1044B64
:10CE8000DB681B689B69EFE7704700BF885EFF1F88
:10CE90001C9D0200801FFF1F38B50020FFF7DAFF3E
:10CEA000164B174CDD68D4F898022B689B6898479E
:10CEB0002B68D4F89C029B6898472B68D4F8A00292
:10CEC0009B6898472B68D4F8A4029B6898472B6806
:10CED000D4F8A8029B6898472B68D4F8AC029B68EA
:10CEE00098472B68D4F8B0029B68984723689B68E2
:10CEF0009847BDE8384012F0E5BE00BF1C9D020017
:10CF0000801FFF1F38B50D46044648B912F0B4FD26
:10CF1000296801442960204612F02CFC204638BDC7
:10CF20000820FCE708B50B46114623BB062824D889
:10CF3000DFE800F004090D2311181C00002012F096
:10CF400019FC002008BD002012F036FDF9E7002092
:10CF500012F0EAFBF5E7002AB8BF5142002012F0B8
:10CF600047FDEEE7002012F0F5FEEAE70448D1B2F3
:10CF700013F0F7FFE5E70820E4E70420E2E700BF4D
:10CF8000841FFF1F10B5144629BB062825D8DFE8EB
:10CF900000F0040A0E12161A1E00002012F07CFD8A
:10CFA0002060002010BD002012F066FDF8E7002090
:10CFB00012F092FDF4E7002012F07EFDF0E7002071
:10CFC00012F0AAFDECE7002012F096FDE8E7044815
:10CFD00013F0C4FFE4E70820E4E70420E2E700BF21
:10CFE000841FFF1F70B50122514C524E114607207D
:10CFF00012F0BAFF201D13F053FFF5686B6803F5BC
:10D000009472C4F89C2203F5A472C4F8A02203F120
:10D01000C802C4F8A42203F1E80203F16800C4F8CE
:10D02000A82203F18802A833C4F8B0322B68C4F8F0
:10D03000AC22DB68C4F8980298472B68D4F89C02AD
:10D04000DB6898472B68D4F8A002DB6898472B6808
:10D05000D4F8A402DB6898472B68D4F8A802DB68F0
:10D0600098472B68D4F8AC021B6998472B68D4F812
:10D07000B0021B699847F36A23605B6898472E4BA0
:10D080002E49D3F89020C4F894220125C2F8041246
:10D090002B491580C2F808122A4AC3F89C202A4A54
:10D0A000C3F89820294AC3F89420294AC3F8A0203D
:10D0B000284AC3F8B420284AC3F8B020274AC3F846
:10D0C000A420274AC3F8A820264AC3F8C420264A29
:10D0D000C3F8C020254AC3F8CC20254AC3F8DC2079
:10D0E000244AC3F8D82032214FF4C372C3E9212166
:10D0F000214AC3F8D4204FF40030204A83F88C50E2
:10D10000C3F8D02012F066FD0023D4E9A712184618
:10D1100012F0B6FB4FF44841002012F069FC0020E9
:10D120004FF4484112F016FE2846BDE8704091E6E3
:10D13000801FFF1F1C9D0200885EFF1F2DCE000078
:10D140001FCE000003CE00001DCE000019CE00004F
:10D1500015CE000085CF000025CF0000F1CD0000E6
:10D1600005CF000071CD000095CD0000D9CD0000A5
:10D1700055CE000061CD000099CE0000B9CD000071
:10D18000024B0022C3F88020704700BF885EFF1F5B
:10D19000014813F0E9BE00BF4022FF1F10B503484D
:10D1A000144613F014FF206010BD00BF4022FF1F83
:10D1B00008B50146034813F065FFBDE808400020AC
:10D1C00012F0F0BA4022FF1F10B5044618B912F051
:10D1D000D1FA204610BD0820FCE710B5044618B966
:10D1E00012F0A2FA204610BD0820FCE70021F4E767
:10D1F0004942F2E7F1E770B506461D460C460029A4
:10D2000040F0AF828C2A00F048814BD81D2A07D904
:10D21000322A00F03081332A00F036810426D0E132
:10D220001D2AFBD801A353F822F000BF4FD3000002
:10D2300065D3000077D3000089D3000095D30000A8
:10D24000ADD30000BFD30000EBD300000DD400002D
:10D250001DD200001DD200001DD200001DD2000012
:10D260001DD200001DD200001DD200001DD2000002
:10D270001DD200001DD200001DD200001DD20000F2
:10D280001DD200001DD200001DD200001DD20000E2
:10D290001DD200001DD200001DD200001DD40000D0
:10D2A00047D40000C02A45D8A12AB7D9A23A1E2ADD
:10D2B000B4D801A353F822F027D500001DD20000F6
:10D2C0001DD200004BD5000089D5000009D6000012
:10D2D0001DD200001DD200001DD200001DD2000092
:10D2E0001DD200001DD200001DD200001DD2000082
:10D2F0001DD200001DD200001DD200002DD600005E
:10D300004FD6000063D600001DD200001DD20000E1
:10D310001DD200001DD2000077D60000B9D6000053
:10D320001DD200001DD200001DD20000FBD600005F
:10D330002DD70000CC2A7FF471AFAB487021002EAE
:10D3400040F0068213F043FEC0F3015002E018B92A
:10D3500012F0A2FB286034E12968002012F00AFADA
:10D3600000262EE110B912F087FBF3E729680020B0
:10D3700012F022FBF4E710B912F0AEFBEAE72968DD
:10D38000002012F0D1F9EBE700287FF447AF12F04C
:10D3900093FBDFE710B912F0BFFBDBE72968002938
:10D3A000B8BF4942002012F023FBD9E710B912F0B0
:10D3B000A3FBCFE72968002012F0CCFCD0E78A4815
:10D3C000102126B913F003FEC0F30420C2E713F0C6
:10D3D000FEFD2B681B0203F4F85320F4F8521A43A5
:10D3E0001021814813F0C0FDBAE77F48102126B90B
:10D3F00013F0EDFD00F01F00ACE713F0E8FD2A6824
:10D4000020F01F0002F01F020243E9E700287FF42A
:10D4100005AF12F00DFAC0F300109BE730B90146DA
:10D42000714813F0D4FDC0F3400093E76E4800212B
:10D4300013F0CDFD2B685B0003F0020320F0020225
:10D440001A430021CDE700287FF4E8AE12F090FBEC
:10D4500012210446644813F0BAFDC0F313027A2087
:10D46000D317A4FB00011AF03DFA00F11303262B99
:10D4700098BF00206EE710B912F06CFB6AE71978CC
:10D48000204612F0D1FA6BE710B912F071FB61E798
:10D490001968204612F0D8FA62E748B952486C2160
:10D4A00013F095FDC0F303634FF48070184151E70A
:10D4B0001B68102B2FD00ADC013B072B0ED8072B43
:10D4C0000CD8DFE803F015220B240B0B0B26802B66
:10D4D00027D008DC202B20D0402B20D04FF0FF336A
:10D4E0002B6010266DE0B3F5807FF7D1296001E055
:10D4F00008232B603C486C2113F069FD2B681B0648
:10D5000003F0706320F070621DE00723F1E706234B
:10D51000EFE70523EDE70423EBE70323E9E7022325
:10D52000E7E70123E5E730486C2126B913F04FFD0A
:10D53000C0F3C1300EE713F04AFD2B68DB0303F4A0
:10D54000C03320F4C0321A436EE0002E7FF466AE82
:10D550006C21254813F03BFD10F4804F4FF06C0117
:10D56000214804D013F033FDC0F3C310F2E613F0EA
:10D570002EFD6C2104461C4813F029FDC0F3021354
:10D5800022051BD42B60EBE617486C21DEB913F0A3
:10D590001EFD10F4804F4FF06C01134804D013F0BF
:10D5A00016FDC0F30210D5E613F011FD6C21044600
:10D5B0000D4813F00CFDC0F3C313E1E743F008037B
:10D5C0002B60304670BD13F002FD10F480464FF022
:10D5D0006C0105480AD013F0FAFC2B681B0103F01C
:10D5E000700320F07002AEE74022FF1F13F0EFFC43
:10D5F0002B68DB0103F4F06320F4F0621A435A480D
:10D600006C2113F0B1FCDCE757486C2126B913F00C
:10D61000DEFC00F00F009DE613F0D9FC2A6820F034
:10D620000F0002F00F0202436C21DAE64E486C2133
:10D6300026B913F0CCFCC0F340408BE613F0C7FCD6
:10D640002B685B0403F4003320F400327BE7002EE8
:10D650007FF4E4AD44486F2113F0B9FCC0F30440FB
:10D6600078E61EB9304612F067FA73E629680020A2
:10D6700012F0CCF974E686B93B48132113F0A7FCED
:10D68000002808BF01204FF0807393FBF0F0374B68
:10D690009842D4BF28602B6093E72B68002B08BF0B
:10D6A00001234FF0807292FBF3F2304B9A42A8BFF5
:10D6B0001A462A60132194E62B48702126B913F0EC
:10D6C00086FCC0F3072045E613F081FC2B681B02A3
:10D6D0009BB220F47F421A432348702113F044FC8C
:10D6E0002148002113F073FC2B68002B20F004006C
:10D6F000D4BF042200220243A3E636B91A4870219F
:10D7000013F065FCC0F3014024E62B68032B3FF6C1
:10D71000E8AE1548702113F05AFC2B681B0403F483
:10D72000403320F440321A4370215AE60E487021EB
:10D7300026B913F04CFCC0F380400BE613F047FC15
:10D740002B68002B20F4802218BF4FF48023EAE7D7
:10D7500013F03DFC2B681B0503F4401320F440122A
:10D76000E1E708262DE700BF4022FF1FFFFF0F0063
:10D7700007B5019201AB02460120FFF73CFD03B063
:10D780005DF804FB13460246002034E5014813F01F
:10D79000E1BC00BF4022FF1F10B54FF40030074C22
:10D7A00012F018FA0023D4E9A312184612F068F810
:10D7B0002046BDE8104013F0B6BC00BF4022FF1F5A
:10D7C000022804BF0C4B93F8F00038B90B4BDB6810
:10D7D0001B685B690A4AD2F888021847012809D1F8
:10D7E000054B93F8F030012B04D1044BDB681B6828
:10D7F0009B69EFE7704700BF885EFF1F1C9D02001A
:10D800004022FF1F38B50020FFF7DAFF144B154CFC
:10D81000DD68D4F888022B689B6898472B68D4F899
:10D820008C029B6898472B68D4F890029B689847B5
:10D830002B68D4F894029B6898472B68D4F8980218
:10D840009B6898472B68D4F89C029B6898472B6884
:10D85000D4F8A0029B689847BDE8384012F032BA6D
:10D860001C9D02004022FF1F10B51446042828D832
:10D87000DFE800F003080E121A00084611F0D8FF86
:10D88000206003E01178104813F06DFC002010BDFB
:10D890000D4813F06BFCF3E70C4B0220DB68984754
:10D8A0005023B0FBF3F0EBE713684FF4FA51594300
:10D8B0006423B1FBF3F1054B89B29B6802209847C2
:10D8C000E4E70420E3E700BF4022FF1FE00AFF1F58
:10D8D00038B50D46044648B912F0CEF8296801441F
:10D8E0002960204611F046FF204638BD0820FCE79D
:10D8F0000248DBB2D0F8A80210F0E2B94022FF1FC4
:10D90000012212F08BBB70B501225F4E5F4C1146B5
:10D91000072012F029FBF5686B6803F59472C4F8D0
:10D920008C2203F5A472C4F8902203F1C802C4F853
:10D93000942203F1E802C4F8982203F1880203F16B
:10D940006800C4F89C2203F1A80203F5C473C4F86C
:10D95000A4322B68C4F8A022DB68C4F88802984778
:10D960002B68D4F88C02DB6898472B68D4F89002B7
:10D97000DB6898472B68D4F89402DB6898472B68DB
:10D98000D4F89802DB6898472B68D4F89C021B698E
:10D9900098472B68D4F8A0021B699847F36AC4F82B
:10D9A000A83201261E705B689847394B3949D3F875
:10D9B0009020C2F804123849C2F80812374916807C
:10D9C000C3F89C103649C3F898103649C3F8941030
:10D9D0003549C3F8A0103549C3F8B4103449C3F829
:10D9E000B0103449C3F8A4103349C3F8A810334920
:10D9F000C3F8C4103249C3F8C0103249C3F8CC1080
:10DA00003149C3F8DC103149C3F8D81032204FF443
:10DA1000C371C3E921102E49C3F8D4102D4983F8EE
:10DA20008C60C3F8D01020462B4B002113F00EFB66
:10DA30004FF4003012F0CEF80023D4E9A3121846B8
:10DA400011F01EFF4FF44841002011F0D1FF4FF4B8
:10DA50004841002012F07EF92B68D4F8A402DB685C
:10DA60009847D4F8A4021D4C042343752B681B6807
:10DA7000984723689847A368022041F2707198473D
:10DA80003046BDE870409BE61C9D02004022FF1F0F
:10DA9000885EFF1F99D700008DD70000DBD1000002
:10DAA000F5D10000F1D10000EDD1000085D70000D4
:10DAB00071D70000C9D10000D1D8000091D1000079
:10DAC0009DD1000069D80000C1D7000081D10000BD
:10DAD00005D80000B1D10000D8880200E00AFF1F7D
:10DAE0000346012B10B5084614460AD0022B0FD06E
:10DAF00093B912680949B2FA82F252090A710020F8
:10DB000010BD1368064AB3FA83F35B091360F6E7A6
:10DB100011F08EFE2060F2E70420F1E7F824FF1FE9
:10DB20006C00FF1F10B50348144613F06BFB206018
:10DB300010BD00BFF824FF1F70B5164C01462046EB
:10DB400013F0AAFB002011F02DFE002011F0B4FF0D
:10DB5000A36894F840200028B8BF4042984234BFE0
:10DB600000260126B24213D098424FF00501094821
:10DB70002CBFA579657913F045FB05F00F0520F062
:10DB80000F022A430348052113F02AFB84F8406062
:10DB900070BD00BFF824FF1F014813F021BB00BF78
:10DBA000F824FF1F10B5044618B911F0E3FD204614
:10DBB00010BD0820FCE710B5044618B911F0B4FDFB
:10DBC000204610BD0820FCE70021F4E74942F2E7B7
:10DBD000F1E770B504461D460E46002940F09383D8
:10DBE000D62A0AD88B2A0AD81D2A40F2A580322AC2
:10DBF00000F05681332A00F05C810424E2E08C3A84
:10DC00004A2AFAD801A353F822F000BFC5DE00006B
:10DC1000FBDB0000FBDB0000FBDB0000FBDB0000AC
:10DC2000FBDB0000FBDB0000FBDB0000FBDB00009C
:10DC3000FBDB0000FBDB0000FBDB0000FBDB00008C
:10DC4000FBDB0000FBDB0000FBDB0000FBDB00007C
:10DC5000FBDB0000FBDB0000FBDB000051DF000012
:10DC600079DF00009FDF0000C7DF0000EDDF00006C
:10DC700013E0000039E000005FE0000087E00000F2
:10DC8000ADE00000D5E00000F7E0000019E1000081
:10DC900027E100004DE100007DE10000A1E100006E
:10DCA000C3E10000E5E1000007E2000029E2000016
:10DCB0003DE200004FE200005DE200007DE2000076
:10DCC0009FE20000FBDB0000FBDB0000FBDB000051
:10DCD000FBDB0000FBDB0000FBDB0000FBDB0000EC
:10DCE000FBDB0000FBDB0000FBDB0000FBDB0000DC
:10DCF000FBDB0000FBDB0000FBDB0000FBDB0000CC
:10DD0000FBDB0000FBDB0000FBDB0000FBDB0000BB
:10DD1000FBDB0000BBE20000FBDB0000E7E20000F1
:10DD2000FBDB0000FBDB0000FBDB0000FBDB00009B
